{
  "contractName": "MoralisPing",
  "abi": [
    {
      "inputs": [],
      "stateMutability": "nonpayable",
      "type": "constructor"
    },
    {
      "anonymous": false,
      "inputs": [
        {
          "indexed": true,
          "internalType": "address",
          "name": "sender",
          "type": "address"
        },
        {
          "indexed": false,
          "internalType": "uint256",
          "name": "chain_id",
          "type": "uint256"
        },
        {
          "indexed": false,
          "internalType": "uint256",
          "name": "current_count",
          "type": "uint256"
        }
      ],
      "name": "ChainPinged",
      "type": "event"
    },
    {
      "inputs": [],
      "name": "chain_id",
      "outputs": [
        {
          "internalType": "uint256",
          "name": "",
          "type": "uint256"
        }
      ],
      "stateMutability": "view",
      "type": "function"
    },
    {
      "inputs": [],
      "name": "contractAddress",
      "outputs": [
        {
          "internalType": "address",
          "name": "",
          "type": "address"
        }
      ],
      "stateMutability": "view",
      "type": "function"
    },
    {
      "inputs": [],
      "name": "count",
      "outputs": [
        {
          "internalType": "uint256",
          "name": "",
          "type": "uint256"
        }
      ],
      "stateMutability": "view",
      "type": "function"
    },
    {
      "inputs": [],
      "name": "latestPingFromAddress",
      "outputs": [
        {
          "internalType": "address",
          "name": "",
          "type": "address"
        }
      ],
      "stateMutability": "view",
      "type": "function"
    },
    {
      "inputs": [],
      "name": "manager",
      "outputs": [
        {
          "internalType": "address",
          "name": "",
          "type": "address"
        }
      ],
      "stateMutability": "view",
      "type": "function"
    },
    {
      "inputs": [],
      "name": "ping",
      "outputs": [],
      "stateMutability": "nonpayable",
      "type": "function"
    }
  ],
  "bytecode": "0x608060405234801561001057600080fd5b50600060028190555033600160006101000a81548173ffffffffffffffffffffffffffffffffffffffff021916908373ffffffffffffffffffffffffffffffffffffffff160217905550306000806101000a81548173ffffffffffffffffffffffffffffffffffffffff021916908373ffffffffffffffffffffffffffffffffffffffff160217905550466003819055506103a3806100b06000396000f3fe608060405234801561001057600080fd5b50600436106100625760003560e01c806306661abd146100675780633af973b114610085578063481c6a75146100a35780634f3ebbb4146100c15780635c36b186146100df578063f6b4dfb4146100e9575b600080fd5b61006f610107565b60405161007c9190610248565b60405180910390f35b61008d61010d565b60405161009a9190610248565b60405180910390f35b6100ab610113565b6040516100b891906102a4565b60405180910390f35b6100c9610139565b6040516100d691906102a4565b60405180910390f35b6100e761015f565b005b6100f161020b565b6040516100fe91906102a4565b60405180910390f35b60025481565b60035481565b600160009054906101000a900473ffffffffffffffffffffffffffffffffffffffff1681565b600460009054906101000a900473ffffffffffffffffffffffffffffffffffffffff1681565b600160025461016e91906102ee565b60028190555033600460006101000a81548173ffffffffffffffffffffffffffffffffffffffff021916908373ffffffffffffffffffffffffffffffffffffffff1602179055503373ffffffffffffffffffffffffffffffffffffffff167f7866d4da5ed79baabc0ad744087bb323c6d6744593d55948d833658e8ebfd926600354600254604051610201929190610344565b60405180910390a2565b60008054906101000a900473ffffffffffffffffffffffffffffffffffffffff1681565b6000819050919050565b6102428161022f565b82525050565b600060208201905061025d6000830184610239565b92915050565b600073ffffffffffffffffffffffffffffffffffffffff82169050919050565b600061028e82610263565b9050919050565b61029e81610283565b82525050565b60006020820190506102b96000830184610295565b92915050565b7f4e487b7100000000000000000000000000000000000000000000000000000000600052601160045260246000fd5b60006102f98261022f565b91506103048361022f565b9250827fffffffffffffffffffffffffffffffffffffffffffffffffffffffffffffffff03821115610339576103386102bf565b5b828201905092915050565b60006040820190506103596000830185610239565b6103666020830184610239565b939250505056fea264697066735822122024b3326f46c267cb00c1da6aaeb794a6e5b511c44c0a6d2ba9da6514e399c4d564736f6c63430008090033",
  "immutableReferences": {},
  "source": "// SPDX-License-Identifier: MIT\npragma solidity ^0.8.7;\n\ncontract MoralisPing {\n    address public contractAddress;\n    address public manager;\n  \n    uint256 public count;\n    uint256 public chain_id;\n    address public latestPingFromAddress; \n    \n\n    event ChainPinged(address indexed sender, uint256 chain_id, uint256 current_count);\n    \n    constructor() {\n        count = 0;\n        manager = msg.sender;\n        contractAddress = address(this);\n        chain_id = block.chainid;\n    }\n\n    // When pinged, msg.sender should be emitted and ping count incremented - lets also send the chainID\n    function ping() public {\n        count = count + 1;\n        latestPingFromAddress = msg.sender;\n        emit ChainPinged(msg.sender, chain_id, count);\n    }\n}",
  "sourcePath": "/Users/alisonhaire/Desktop/Blockchain/Chainlink/moralis/testmoralis/contracts/MoralisPing.sol",
  "compiler": {
    "name": "solc",
    "version": "0.8.9+commit.e5eed63a.Emscripten.clang"
  },
  "schemaVersion": "3.4.1",
  "updatedAt": "2021-10-04T03:09:19.109Z",
  "devdoc": {
    "kind": "dev",
    "methods": {},
    "version": 1
  },
  "userdoc": {
    "kind": "user",
    "methods": {},
    "version": 1
  }
}